{
  "contractName": "NftMmorpg",
  "abi": [
    {
      "inputs": [
        {
          "internalType": "string",
          "name": "name",
          "type": "string"
        },
        {
          "internalType": "string",
          "name": "symbol",
          "type": "string"
        }
      ],
      "stateMutability": "nonpayable",
      "type": "constructor"
    },
    {
      "anonymous": false,
      "inputs": [
        {
          "indexed": true,
          "internalType": "address",
          "name": "owner",
          "type": "address"
        },
        {
          "indexed": true,
          "internalType": "address",
          "name": "approved",
          "type": "address"
        },
        {
          "indexed": true,
          "internalType": "uint256",
          "name": "tokenId",
          "type": "uint256"
        }
      ],
      "name": "Approval",
      "type": "event"
    },
    {
      "anonymous": false,
      "inputs": [
        {
          "indexed": true,
          "internalType": "address",
          "name": "owner",
          "type": "address"
        },
        {
          "indexed": true,
          "internalType": "address",
          "name": "operator",
          "type": "address"
        },
        {
          "indexed": false,
          "internalType": "bool",
          "name": "approved",
          "type": "bool"
        }
      ],
      "name": "ApprovalForAll",
      "type": "event"
    },
    {
      "anonymous": false,
      "inputs": [
        {
          "indexed": true,
          "internalType": "address",
          "name": "previousOwner",
          "type": "address"
        },
        {
          "indexed": true,
          "internalType": "address",
          "name": "newOwner",
          "type": "address"
        }
      ],
      "name": "OwnershipTransferred",
      "type": "event"
    },
    {
      "anonymous": false,
      "inputs": [
        {
          "indexed": true,
          "internalType": "address",
          "name": "from",
          "type": "address"
        },
        {
          "indexed": true,
          "internalType": "address",
          "name": "to",
          "type": "address"
        },
        {
          "indexed": true,
          "internalType": "uint256",
          "name": "tokenId",
          "type": "uint256"
        }
      ],
      "name": "Transfer",
      "type": "event"
    },
    {
      "inputs": [
        {
          "internalType": "address",
          "name": "to",
          "type": "address"
        },
        {
          "internalType": "uint256",
          "name": "tokenId",
          "type": "uint256"
        }
      ],
      "name": "approve",
      "outputs": [],
      "stateMutability": "nonpayable",
      "type": "function"
    },
    {
      "inputs": [
        {
          "internalType": "address",
          "name": "owner",
          "type": "address"
        }
      ],
      "name": "balanceOf",
      "outputs": [
        {
          "internalType": "uint256",
          "name": "",
          "type": "uint256"
        }
      ],
      "stateMutability": "view",
      "type": "function",
      "constant": true
    },
    {
      "inputs": [
        {
          "internalType": "uint256",
          "name": "tokenId",
          "type": "uint256"
        }
      ],
      "name": "getApproved",
      "outputs": [
        {
          "internalType": "address",
          "name": "",
          "type": "address"
        }
      ],
      "stateMutability": "view",
      "type": "function",
      "constant": true
    },
    {
      "inputs": [
        {
          "internalType": "address",
          "name": "owner",
          "type": "address"
        },
        {
          "internalType": "address",
          "name": "operator",
          "type": "address"
        }
      ],
      "name": "isApprovedForAll",
      "outputs": [
        {
          "internalType": "bool",
          "name": "",
          "type": "bool"
        }
      ],
      "stateMutability": "view",
      "type": "function",
      "constant": true
    },
    {
      "inputs": [],
      "name": "name",
      "outputs": [
        {
          "internalType": "string",
          "name": "",
          "type": "string"
        }
      ],
      "stateMutability": "view",
      "type": "function",
      "constant": true
    },
    {
      "inputs": [],
      "name": "owner",
      "outputs": [
        {
          "internalType": "address",
          "name": "",
          "type": "address"
        }
      ],
      "stateMutability": "view",
      "type": "function",
      "constant": true
    },
    {
      "inputs": [
        {
          "internalType": "uint256",
          "name": "tokenId",
          "type": "uint256"
        }
      ],
      "name": "ownerOf",
      "outputs": [
        {
          "internalType": "address",
          "name": "",
          "type": "address"
        }
      ],
      "stateMutability": "view",
      "type": "function",
      "constant": true
    },
    {
      "inputs": [],
      "name": "renounceOwnership",
      "outputs": [],
      "stateMutability": "nonpayable",
      "type": "function"
    },
    {
      "inputs": [
        {
          "internalType": "address",
          "name": "from",
          "type": "address"
        },
        {
          "internalType": "address",
          "name": "to",
          "type": "address"
        },
        {
          "internalType": "uint256",
          "name": "tokenId",
          "type": "uint256"
        }
      ],
      "name": "safeTransferFrom",
      "outputs": [],
      "stateMutability": "nonpayable",
      "type": "function"
    },
    {
      "inputs": [
        {
          "internalType": "address",
          "name": "from",
          "type": "address"
        },
        {
          "internalType": "address",
          "name": "to",
          "type": "address"
        },
        {
          "internalType": "uint256",
          "name": "tokenId",
          "type": "uint256"
        },
        {
          "internalType": "bytes",
          "name": "_data",
          "type": "bytes"
        }
      ],
      "name": "safeTransferFrom",
      "outputs": [],
      "stateMutability": "nonpayable",
      "type": "function"
    },
    {
      "inputs": [
        {
          "internalType": "address",
          "name": "operator",
          "type": "address"
        },
        {
          "internalType": "bool",
          "name": "approved",
          "type": "bool"
        }
      ],
      "name": "setApprovalForAll",
      "outputs": [],
      "stateMutability": "nonpayable",
      "type": "function"
    },
    {
      "inputs": [
        {
          "internalType": "bytes4",
          "name": "interfaceId",
          "type": "bytes4"
        }
      ],
      "name": "supportsInterface",
      "outputs": [
        {
          "internalType": "bool",
          "name": "",
          "type": "bool"
        }
      ],
      "stateMutability": "view",
      "type": "function",
      "constant": true
    },
    {
      "inputs": [],
      "name": "symbol",
      "outputs": [
        {
          "internalType": "string",
          "name": "",
          "type": "string"
        }
      ],
      "stateMutability": "view",
      "type": "function",
      "constant": true
    },
    {
      "inputs": [
        {
          "internalType": "uint256",
          "name": "tokenId",
          "type": "uint256"
        }
      ],
      "name": "tokenURI",
      "outputs": [
        {
          "internalType": "string",
          "name": "",
          "type": "string"
        }
      ],
      "stateMutability": "view",
      "type": "function",
      "constant": true
    },
    {
      "inputs": [
        {
          "internalType": "address",
          "name": "from",
          "type": "address"
        },
        {
          "internalType": "address",
          "name": "to",
          "type": "address"
        },
        {
          "internalType": "uint256",
          "name": "tokenId",
          "type": "uint256"
        }
      ],
      "name": "transferFrom",
      "outputs": [],
      "stateMutability": "nonpayable",
      "type": "function"
    },
    {
      "inputs": [
        {
          "internalType": "address",
          "name": "newOwner",
          "type": "address"
        }
      ],
      "name": "transferOwnership",
      "outputs": [],
      "stateMutability": "nonpayable",
      "type": "function"
    },
    {
      "inputs": [
        {
          "internalType": "string",
          "name": "name",
          "type": "string"
        },
        {
          "internalType": "uint8",
          "name": "dmg",
          "type": "uint8"
        },
        {
          "internalType": "uint8",
          "name": "magic",
          "type": "uint8"
        }
      ],
      "name": "mint",
      "outputs": [],
      "stateMutability": "nonpayable",
      "type": "function"
    },
    {
      "inputs": [],
      "name": "getCurrentId",
      "outputs": [
        {
          "internalType": "uint256",
          "name": "",
          "type": "uint256"
        }
      ],
      "stateMutability": "view",
      "type": "function",
      "constant": true
    },
    {
      "inputs": [
        {
          "internalType": "uint256",
          "name": "id",
          "type": "uint256"
        }
      ],
      "name": "getCharacter",
      "outputs": [
        {
          "components": [
            {
              "internalType": "string",
              "name": "name",
              "type": "string"
            },
            {
              "internalType": "uint8",
              "name": "damage",
              "type": "uint8"
            },
            {
              "internalType": "uint8",
              "name": "magic",
              "type": "uint8"
            }
          ],
          "internalType": "struct NftMmorpg.Character",
          "name": "",
          "type": "tuple"
        }
      ],
      "stateMutability": "view",
      "type": "function",
      "constant": true
    }
  ],
  "bytecode": "0x608060405260006008553480156200001657600080fd5b506040516200331b3803806200331b83398181016040528101906200003c91906200028a565b818181600090805190602001906200005692919062000168565b5080600190805190602001906200006f92919062000168565b50505062000092620000866200009a60201b60201c565b620000a260201b60201c565b50506200042e565b600033905090565b6000600660009054906101000a900473ffffffffffffffffffffffffffffffffffffffff16905081600660006101000a81548173ffffffffffffffffffffffffffffffffffffffff021916908373ffffffffffffffffffffffffffffffffffffffff1602179055508173ffffffffffffffffffffffffffffffffffffffff168173ffffffffffffffffffffffffffffffffffffffff167f8be0079c531659141344cd1fd0a4f28419497f9722a3daafe3b4186f6b6457e060405160405180910390a35050565b82805462000176906200039a565b90600052602060002090601f0160209004810192826200019a5760008555620001e6565b82601f10620001b557805160ff1916838001178555620001e6565b82800160010185558215620001e6579182015b82811115620001e5578251825591602001919060010190620001c8565b5b509050620001f59190620001f9565b5090565b5b8082111562000214576000816000905550600101620001fa565b5090565b60006200022f620002298462000331565b620002fd565b9050828152602081018484840111156200024857600080fd5b6200025584828562000364565b509392505050565b600082601f8301126200026f57600080fd5b81516200028184826020860162000218565b91505092915050565b600080604083850312156200029e57600080fd5b600083015167ffffffffffffffff811115620002b957600080fd5b620002c7858286016200025d565b925050602083015167ffffffffffffffff811115620002e557600080fd5b620002f3858286016200025d565b9150509250929050565b6000604051905081810181811067ffffffffffffffff82111715620003275762000326620003ff565b5b8060405250919050565b600067ffffffffffffffff8211156200034f576200034e620003ff565b5b601f19601f8301169050602081019050919050565b60005b838110156200038457808201518184015260208101905062000367565b8381111562000394576000848401525b50505050565b60006002820490506001821680620003b357607f821691505b60208210811415620003ca57620003c9620003d0565b5b50919050565b7f4e487b7100000000000000000000000000000000000000000000000000000000600052602260045260246000fd5b7f4e487b7100000000000000000000000000000000000000000000000000000000600052604160045260246000fd5b612edd806200043e6000396000f3fe608060405234801561001057600080fd5b50600436106101215760003560e01c806370a08231116100ad578063b88d4fde11610071578063b88d4fde146102f4578063c87b56dd14610310578063dabb053114610340578063e985e9c514610370578063f2fde38b146103a057610121565b806370a0823114610262578063715018a6146102925780638da5cb5b1461029c57806395d89b41146102ba578063a22cb465146102d857610121565b806323b872dd116100f457806323b872dd146101c05780633f753adf146101dc57806342842e0e146101f85780636352211e146102145780636c1438621461024457610121565b806301ffc9a71461012657806306fdde0314610156578063081812fc14610174578063095ea7b3146101a4575b600080fd5b610140600480360381019061013b9190611f41565b6103bc565b60405161014d91906127de565b60405180910390f35b61015e61049e565b60405161016b91906127f9565b60405180910390f35b61018e60048036038101906101899190611ffa565b610530565b60405161019b9190612777565b60405180910390f35b6101be60048036038101906101b99190611f05565b6105b5565b005b6101da60048036038101906101d59190611dff565b6106cd565b005b6101f660048036038101906101f19190611f93565b61072d565b005b610212600480360381019061020d9190611dff565b6107ee565b005b61022e60048036038101906102299190611ffa565b61080e565b60405161023b9190612777565b60405180910390f35b61024c6108c0565b6040516102599190612a3d565b60405180910390f35b61027c60048036038101906102779190611d9a565b6108ca565b6040516102899190612a3d565b60405180910390f35b61029a610982565b005b6102a4610a0a565b6040516102b19190612777565b60405180910390f35b6102c2610a34565b6040516102cf91906127f9565b60405180910390f35b6102f260048036038101906102ed9190611ec9565b610ac6565b005b61030e60048036038101906103099190611e4e565b610c47565b005b61032a60048036038101906103259190611ffa565b610ca9565b60405161033791906127f9565b60405180910390f35b61035a60048036038101906103559190611ffa565b610d50565b6040516103679190612a1b565b60405180910390f35b61038a60048036038101906103859190611dc3565b610e49565b60405161039791906127de565b60405180910390f35b6103ba60048036038101906103b59190611d9a565b610edd565b005b60007f80ac58cd000000000000000000000000000000000000000000000000000000007bffffffffffffffffffffffffffffffffffffffffffffffffffffffff1916827bffffffffffffffffffffffffffffffffffffffffffffffffffffffff1916148061048757507f5b5e139f000000000000000000000000000000000000000000000000000000007bffffffffffffffffffffffffffffffffffffffffffffffffffffffff1916827bffffffffffffffffffffffffffffffffffffffffffffffffffffffff1916145b80610497575061049682610fd5565b5b9050919050565b6060600080546104ad90612cbb565b80601f01602080910402602001604051908101604052809291908181526020018280546104d990612cbb565b80156105265780601f106104fb57610100808354040283529160200191610526565b820191906000526020600020905b81548152906001019060200180831161050957829003601f168201915b5050505050905090565b600061053b8261103f565b61057a576040517f08c379a00000000000000000000000000000000000000000000000000000000081526004016105719061295b565b60405180910390fd5b6004600083815260200190815260200160002060009054906101000a900473ffffffffffffffffffffffffffffffffffffffff169050919050565b60006105c08261080e565b90508073ffffffffffffffffffffffffffffffffffffffff168373ffffffffffffffffffffffffffffffffffffffff161415610631576040517f08c379a0000000000000000000000000000000000000000000000000000000008152600401610628906129db565b60405180910390fd5b8073ffffffffffffffffffffffffffffffffffffffff166106506110ab565b73ffffffffffffffffffffffffffffffffffffffff16148061067f575061067e816106796110ab565b610e49565b5b6106be576040517f08c379a00000000000000000000000000000000000000000000000000000000081526004016106b5906128db565b60405180910390fd5b6106c883836110b3565b505050565b6106de6106d86110ab565b8261116c565b61071d576040517f08c379a0000000000000000000000000000000000000000000000000000000008152600401610714906129fb565b60405180910390fd5b61072883838361124a565b505050565b610739336008546114a6565b60405180606001604052808481526020018360ff1681526020018260ff16815250600760006008548152602001908152602001600020600082015181600001908051906020019061078b929190611b82565b5060208201518160010160006101000a81548160ff021916908360ff16021790555060408201518160010160016101000a81548160ff021916908360ff160217905550905050600860008154809291906107e490612ced565b9190505550505050565b61080983838360405180602001604052806000815250610c47565b505050565b6000806002600084815260200190815260200160002060009054906101000a900473ffffffffffffffffffffffffffffffffffffffff169050600073ffffffffffffffffffffffffffffffffffffffff168173ffffffffffffffffffffffffffffffffffffffff1614156108b7576040517f08c379a00000000000000000000000000000000000000000000000000000000081526004016108ae9061291b565b60405180910390fd5b80915050919050565b6000600854905090565b60008073ffffffffffffffffffffffffffffffffffffffff168273ffffffffffffffffffffffffffffffffffffffff16141561093b576040517f08c379a0000000000000000000000000000000000000000000000000000000008152600401610932906128fb565b60405180910390fd5b600360008373ffffffffffffffffffffffffffffffffffffffff1673ffffffffffffffffffffffffffffffffffffffff168152602001908152602001600020549050919050565b61098a6110ab565b73ffffffffffffffffffffffffffffffffffffffff166109a8610a0a565b73ffffffffffffffffffffffffffffffffffffffff16146109fe576040517f08c379a00000000000000000000000000000000000000000000000000000000081526004016109f59061297b565b60405180910390fd5b610a0860006114c4565b565b6000600660009054906101000a900473ffffffffffffffffffffffffffffffffffffffff16905090565b606060018054610a4390612cbb565b80601f0160208091040260200160405190810160405280929190818152602001828054610a6f90612cbb565b8015610abc5780601f10610a9157610100808354040283529160200191610abc565b820191906000526020600020905b815481529060010190602001808311610a9f57829003601f168201915b5050505050905090565b610ace6110ab565b73ffffffffffffffffffffffffffffffffffffffff168273ffffffffffffffffffffffffffffffffffffffff161415610b3c576040517f08c379a0000000000000000000000000000000000000000000000000000000008152600401610b339061289b565b60405180910390fd5b8060056000610b496110ab565b73ffffffffffffffffffffffffffffffffffffffff1673ffffffffffffffffffffffffffffffffffffffff16815260200190815260200160002060008473ffffffffffffffffffffffffffffffffffffffff1673ffffffffffffffffffffffffffffffffffffffff16815260200190815260200160002060006101000a81548160ff0219169083151502179055508173ffffffffffffffffffffffffffffffffffffffff16610bf66110ab565b73ffffffffffffffffffffffffffffffffffffffff167f17307eab39ab6107e8899845ad3d59bd9653f200f220920489ca2b5937696c3183604051610c3b91906127de565b60405180910390a35050565b610c58610c526110ab565b8361116c565b610c97576040517f08c379a0000000000000000000000000000000000000000000000000000000008152600401610c8e906129fb565b60405180910390fd5b610ca38484848461158a565b50505050565b6060610cb48261103f565b610cf3576040517f08c379a0000000000000000000000000000000000000000000000000000000008152600401610cea906129bb565b60405180910390fd5b6000610cfd6115e6565b90506000815111610d1d5760405180602001604052806000815250610d48565b80610d27846115fd565b604051602001610d38929190612753565b6040516020818303038152906040525b915050919050565b610d58611c08565b60076000838152602001908152602001600020604051806060016040529081600082018054610d8690612cbb565b80601f0160208091040260200160405190810160405280929190818152602001828054610db290612cbb565b8015610dff5780601f10610dd457610100808354040283529160200191610dff565b820191906000526020600020905b815481529060010190602001808311610de257829003601f168201915b505050505081526020016001820160009054906101000a900460ff1660ff1660ff1681526020016001820160019054906101000a900460ff1660ff1660ff16815250509050919050565b6000600560008473ffffffffffffffffffffffffffffffffffffffff1673ffffffffffffffffffffffffffffffffffffffff16815260200190815260200160002060008373ffffffffffffffffffffffffffffffffffffffff1673ffffffffffffffffffffffffffffffffffffffff16815260200190815260200160002060009054906101000a900460ff16905092915050565b610ee56110ab565b73ffffffffffffffffffffffffffffffffffffffff16610f03610a0a565b73ffffffffffffffffffffffffffffffffffffffff1614610f59576040517f08c379a0000000000000000000000000000000000000000000000000000000008152600401610f509061297b565b60405180910390fd5b600073ffffffffffffffffffffffffffffffffffffffff168173ffffffffffffffffffffffffffffffffffffffff161415610fc9576040517f08c379a0000000000000000000000000000000000000000000000000000000008152600401610fc09061283b565b60405180910390fd5b610fd2816114c4565b50565b60007f01ffc9a7000000000000000000000000000000000000000000000000000000007bffffffffffffffffffffffffffffffffffffffffffffffffffffffff1916827bffffffffffffffffffffffffffffffffffffffffffffffffffffffff1916149050919050565b60008073ffffffffffffffffffffffffffffffffffffffff166002600084815260200190815260200160002060009054906101000a900473ffffffffffffffffffffffffffffffffffffffff1673ffffffffffffffffffffffffffffffffffffffff1614159050919050565b600033905090565b816004600083815260200190815260200160002060006101000a81548173ffffffffffffffffffffffffffffffffffffffff021916908373ffffffffffffffffffffffffffffffffffffffff160217905550808273ffffffffffffffffffffffffffffffffffffffff166111268361080e565b73ffffffffffffffffffffffffffffffffffffffff167f8c5be1e5ebec7d5bd14f71427d1e84f3dd0314c0f7b2291e5b200ac8c7c3b92560405160405180910390a45050565b60006111778261103f565b6111b6576040517f08c379a00000000000000000000000000000000000000000000000000000000081526004016111ad906128bb565b60405180910390fd5b60006111c18361080e565b90508073ffffffffffffffffffffffffffffffffffffffff168473ffffffffffffffffffffffffffffffffffffffff16148061123057508373ffffffffffffffffffffffffffffffffffffffff1661121884610530565b73ffffffffffffffffffffffffffffffffffffffff16145b8061124157506112408185610e49565b5b91505092915050565b8273ffffffffffffffffffffffffffffffffffffffff1661126a8261080e565b73ffffffffffffffffffffffffffffffffffffffff16146112c0576040517f08c379a00000000000000000000000000000000000000000000000000000000081526004016112b79061299b565b60405180910390fd5b600073ffffffffffffffffffffffffffffffffffffffff168273ffffffffffffffffffffffffffffffffffffffff161415611330576040517f08c379a00000000000000000000000000000000000000000000000000000000081526004016113279061287b565b60405180910390fd5b61133b8383836117aa565b6113466000826110b3565b6001600360008573ffffffffffffffffffffffffffffffffffffffff1673ffffffffffffffffffffffffffffffffffffffff16815260200190815260200160002060008282546113969190612bc4565b925050819055506001600360008473ffffffffffffffffffffffffffffffffffffffff1673ffffffffffffffffffffffffffffffffffffffff16815260200190815260200160002060008282546113ed9190612b3d565b92505081905550816002600083815260200190815260200160002060006101000a81548173ffffffffffffffffffffffffffffffffffffffff021916908373ffffffffffffffffffffffffffffffffffffffff160217905550808273ffffffffffffffffffffffffffffffffffffffff168473ffffffffffffffffffffffffffffffffffffffff167fddf252ad1be2c89b69c2b068fc378daa952ba7f163c4a11628f55a4df523b3ef60405160405180910390a4505050565b6114c08282604051806020016040528060008152506117af565b5050565b6000600660009054906101000a900473ffffffffffffffffffffffffffffffffffffffff16905081600660006101000a81548173ffffffffffffffffffffffffffffffffffffffff021916908373ffffffffffffffffffffffffffffffffffffffff1602179055508173ffffffffffffffffffffffffffffffffffffffff168173ffffffffffffffffffffffffffffffffffffffff167f8be0079c531659141344cd1fd0a4f28419497f9722a3daafe3b4186f6b6457e060405160405180910390a35050565b61159584848461124a565b6115a18484848461180a565b6115e0576040517f08c379a00000000000000000000000000000000000000000000000000000000081526004016115d79061281b565b60405180910390fd5b50505050565b606060405180602001604052806000815250905090565b60606000821415611645576040518060400160405280600181526020017f300000000000000000000000000000000000000000000000000000000000000081525090506117a5565b600082905060005b6000821461167757808061166090612ced565b915050600a826116709190612b93565b915061164d565b60008167ffffffffffffffff8111156116b9577f4e487b7100000000000000000000000000000000000000000000000000000000600052604160045260246000fd5b6040519080825280601f01601f1916602001820160405280156116eb5781602001600182028036833780820191505090505b5090505b6000851461179e576001826117049190612bc4565b9150600a856117139190612d36565b603061171f9190612b3d565b60f81b81838151811061175b577f4e487b7100000000000000000000000000000000000000000000000000000000600052603260045260246000fd5b60200101907effffffffffffffffffffffffffffffffffffffffffffffffffffffffffffff1916908160001a905350600a856117979190612b93565b94506116ef565b8093505050505b919050565b505050565b6117b983836119a1565b6117c6600084848461180a565b611805576040517f08c379a00000000000000000000000000000000000000000000000000000000081526004016117fc9061281b565b60405180910390fd5b505050565b600061182b8473ffffffffffffffffffffffffffffffffffffffff16611b6f565b15611994578373ffffffffffffffffffffffffffffffffffffffff1663150b7a026118546110ab565b8786866040518563ffffffff1660e01b81526004016118769493929190612792565b602060405180830381600087803b15801561189057600080fd5b505af19250505080156118c157506040513d601f19601f820116820180604052508101906118be9190611f6a565b60015b611944573d80600081146118f1576040519150601f19603f3d011682016040523d82523d6000602084013e6118f6565b606091505b5060008151141561193c576040517f08c379a00000000000000000000000000000000000000000000000000000000081526004016119339061281b565b60405180910390fd5b805181602001fd5b63150b7a0260e01b7bffffffffffffffffffffffffffffffffffffffffffffffffffffffff1916817bffffffffffffffffffffffffffffffffffffffffffffffffffffffff191614915050611999565b600190505b949350505050565b600073ffffffffffffffffffffffffffffffffffffffff168273ffffffffffffffffffffffffffffffffffffffff161415611a11576040517f08c379a0000000000000000000000000000000000000000000000000000000008152600401611a089061293b565b60405180910390fd5b611a1a8161103f565b15611a5a576040517f08c379a0000000000000000000000000000000000000000000000000000000008152600401611a519061285b565b60405180910390fd5b611a66600083836117aa565b6001600360008473ffffffffffffffffffffffffffffffffffffffff1673ffffffffffffffffffffffffffffffffffffffff1681526020019081526020016000206000828254611ab69190612b3d565b92505081905550816002600083815260200190815260200160002060006101000a81548173ffffffffffffffffffffffffffffffffffffffff021916908373ffffffffffffffffffffffffffffffffffffffff160217905550808273ffffffffffffffffffffffffffffffffffffffff16600073ffffffffffffffffffffffffffffffffffffffff167fddf252ad1be2c89b69c2b068fc378daa952ba7f163c4a11628f55a4df523b3ef60405160405180910390a45050565b600080823b905060008111915050919050565b828054611b8e90612cbb565b90600052602060002090601f016020900481019282611bb05760008555611bf7565b82601f10611bc957805160ff1916838001178555611bf7565b82800160010185558215611bf7579182015b82811115611bf6578251825591602001919060010190611bdb565b5b509050611c049190611c2f565b5090565b604051806060016040528060608152602001600060ff168152602001600060ff1681525090565b5b80821115611c48576000816000905550600101611c30565b5090565b6000611c5f611c5a84612a89565b612a58565b905082815260208101848484011115611c7757600080fd5b611c82848285612c79565b509392505050565b6000611c9d611c9884612ab9565b612a58565b905082815260208101848484011115611cb557600080fd5b611cc0848285612c79565b509392505050565b600081359050611cd781612e34565b92915050565b600081359050611cec81612e4b565b92915050565b600081359050611d0181612e62565b92915050565b600081519050611d1681612e62565b92915050565b600082601f830112611d2d57600080fd5b8135611d3d848260208601611c4c565b91505092915050565b600082601f830112611d5757600080fd5b8135611d67848260208601611c8a565b91505092915050565b600081359050611d7f81612e79565b92915050565b600081359050611d9481612e90565b92915050565b600060208284031215611dac57600080fd5b6000611dba84828501611cc8565b91505092915050565b60008060408385031215611dd657600080fd5b6000611de485828601611cc8565b9250506020611df585828601611cc8565b9150509250929050565b600080600060608486031215611e1457600080fd5b6000611e2286828701611cc8565b9350506020611e3386828701611cc8565b9250506040611e4486828701611d70565b9150509250925092565b60008060008060808587031215611e6457600080fd5b6000611e7287828801611cc8565b9450506020611e8387828801611cc8565b9350506040611e9487828801611d70565b925050606085013567ffffffffffffffff811115611eb157600080fd5b611ebd87828801611d1c565b91505092959194509250565b60008060408385031215611edc57600080fd5b6000611eea85828601611cc8565b9250506020611efb85828601611cdd565b9150509250929050565b60008060408385031215611f1857600080fd5b6000611f2685828601611cc8565b9250506020611f3785828601611d70565b9150509250929050565b600060208284031215611f5357600080fd5b6000611f6184828501611cf2565b91505092915050565b600060208284031215611f7c57600080fd5b6000611f8a84828501611d07565b91505092915050565b600080600060608486031215611fa857600080fd5b600084013567ffffffffffffffff811115611fc257600080fd5b611fce86828701611d46565b9350506020611fdf86828701611d85565b9250506040611ff086828701611d85565b9150509250925092565b60006020828403121561200c57600080fd5b600061201a84828501611d70565b91505092915050565b61202c81612bf8565b82525050565b61203b81612c0a565b82525050565b600061204c82612ae9565b6120568185612aff565b9350612066818560208601612c88565b61206f81612e23565b840191505092915050565b600061208582612af4565b61208f8185612b10565b935061209f818560208601612c88565b6120a881612e23565b840191505092915050565b60006120be82612af4565b6120c88185612b21565b93506120d8818560208601612c88565b6120e181612e23565b840191505092915050565b60006120f782612af4565b6121018185612b32565b9350612111818560208601612c88565b80840191505092915050565b600061212a603283612b21565b91507f4552433732313a207472616e7366657220746f206e6f6e20455243373231526560008301527f63656976657220696d706c656d656e74657200000000000000000000000000006020830152604082019050919050565b6000612190602683612b21565b91507f4f776e61626c653a206e6577206f776e657220697320746865207a65726f206160008301527f64647265737300000000000000000000000000000000000000000000000000006020830152604082019050919050565b60006121f6601c83612b21565b91507f4552433732313a20746f6b656e20616c7265616479206d696e746564000000006000830152602082019050919050565b6000612236602483612b21565b91507f4552433732313a207472616e7366657220746f20746865207a65726f2061646460008301527f72657373000000000000000000000000000000000000000000000000000000006020830152604082019050919050565b600061229c601983612b21565b91507f4552433732313a20617070726f766520746f2063616c6c6572000000000000006000830152602082019050919050565b60006122dc602c83612b21565b91507f4552433732313a206f70657261746f7220717565727920666f72206e6f6e657860008301527f697374656e7420746f6b656e00000000000000000000000000000000000000006020830152604082019050919050565b6000612342603883612b21565b91507f4552433732313a20617070726f76652063616c6c6572206973206e6f74206f7760008301527f6e6572206e6f7220617070726f76656420666f7220616c6c00000000000000006020830152604082019050919050565b60006123a8602a83612b21565b91507f4552433732313a2062616c616e636520717565727920666f7220746865207a6560008301527f726f2061646472657373000000000000000000000000000000000000000000006020830152604082019050919050565b600061240e602983612b21565b91507f4552433732313a206f776e657220717565727920666f72206e6f6e657869737460008301527f656e7420746f6b656e00000000000000000000000000000000000000000000006020830152604082019050919050565b6000612474602083612b21565b91507f4552433732313a206d696e7420746f20746865207a65726f20616464726573736000830152602082019050919050565b60006124b4602c83612b21565b91507f4552433732313a20617070726f76656420717565727920666f72206e6f6e657860008301527f697374656e7420746f6b656e00000000000000000000000000000000000000006020830152604082019050919050565b600061251a602083612b21565b91507f4f776e61626c653a2063616c6c6572206973206e6f7420746865206f776e65726000830152602082019050919050565b600061255a602983612b21565b91507f4552433732313a207472616e73666572206f6620746f6b656e2074686174206960008301527f73206e6f74206f776e00000000000000000000000000000000000000000000006020830152604082019050919050565b60006125c0602f83612b21565b91507f4552433732314d657461646174613a2055524920717565727920666f72206e6f60008301527f6e6578697374656e7420746f6b656e00000000000000000000000000000000006020830152604082019050919050565b6000612626602183612b21565b91507f4552433732313a20617070726f76616c20746f2063757272656e74206f776e6560008301527f72000000000000000000000000000000000000000000000000000000000000006020830152604082019050919050565b600061268c603183612b21565b91507f4552433732313a207472616e736665722063616c6c6572206973206e6f74206f60008301527f776e6572206e6f7220617070726f7665640000000000000000000000000000006020830152604082019050919050565b60006060830160008301518482036000860152612702828261207a565b91505060208301516127176020860182612744565b50604083015161272a6040860182612744565b508091505092915050565b61273e81612c62565b82525050565b61274d81612c6c565b82525050565b600061275f82856120ec565b915061276b82846120ec565b91508190509392505050565b600060208201905061278c6000830184612023565b92915050565b60006080820190506127a76000830187612023565b6127b46020830186612023565b6127c16040830185612735565b81810360608301526127d38184612041565b905095945050505050565b60006020820190506127f36000830184612032565b92915050565b6000602082019050818103600083015261281381846120b3565b905092915050565b600060208201905081810360008301526128348161211d565b9050919050565b6000602082019050818103600083015261285481612183565b9050919050565b60006020820190508181036000830152612874816121e9565b9050919050565b6000602082019050818103600083015261289481612229565b9050919050565b600060208201905081810360008301526128b48161228f565b9050919050565b600060208201905081810360008301526128d4816122cf565b9050919050565b600060208201905081810360008301526128f481612335565b9050919050565b600060208201905081810360008301526129148161239b565b9050919050565b6000602082019050818103600083015261293481612401565b9050919050565b6000602082019050818103600083015261295481612467565b9050919050565b60006020820190508181036000830152612974816124a7565b9050919050565b600060208201905081810360008301526129948161250d565b9050919050565b600060208201905081810360008301526129b48161254d565b9050919050565b600060208201905081810360008301526129d4816125b3565b9050919050565b600060208201905081810360008301526129f481612619565b9050919050565b60006020820190508181036000830152612a148161267f565b9050919050565b60006020820190508181036000830152612a3581846126e5565b905092915050565b6000602082019050612a526000830184612735565b92915050565b6000604051905081810181811067ffffffffffffffff82111715612a7f57612a7e612df4565b5b8060405250919050565b600067ffffffffffffffff821115612aa457612aa3612df4565b5b601f19601f8301169050602081019050919050565b600067ffffffffffffffff821115612ad457612ad3612df4565b5b601f19601f8301169050602081019050919050565b600081519050919050565b600081519050919050565b600082825260208201905092915050565b600082825260208201905092915050565b600082825260208201905092915050565b600081905092915050565b6000612b4882612c62565b9150612b5383612c62565b9250827fffffffffffffffffffffffffffffffffffffffffffffffffffffffffffffffff03821115612b8857612b87612d67565b5b828201905092915050565b6000612b9e82612c62565b9150612ba983612c62565b925082612bb957612bb8612d96565b5b828204905092915050565b6000612bcf82612c62565b9150612bda83612c62565b925082821015612bed57612bec612d67565b5b828203905092915050565b6000612c0382612c42565b9050919050565b60008115159050919050565b60007fffffffff0000000000000000000000000000000000000000000000000000000082169050919050565b600073ffffffffffffffffffffffffffffffffffffffff82169050919050565b6000819050919050565b600060ff82169050919050565b82818337600083830152505050565b60005b83811015612ca6578082015181840152602081019050612c8b565b83811115612cb5576000848401525b50505050565b60006002820490506001821680612cd357607f821691505b60208210811415612ce757612ce6612dc5565b5b50919050565b6000612cf882612c62565b91507fffffffffffffffffffffffffffffffffffffffffffffffffffffffffffffffff821415612d2b57612d2a612d67565b5b600182019050919050565b6000612d4182612c62565b9150612d4c83612c62565b925082612d5c57612d5b612d96565b5b828206905092915050565b7f4e487b7100000000000000000000000000000000000000000000000000000000600052601160045260246000fd5b7f4e487b7100000000000000000000000000000000000000000000000000000000600052601260045260246000fd5b7f4e487b7100000000000000000000000000000000000000000000000000000000600052602260045260246000fd5b7f4e487b7100000000000000000000000000000000000000000000000000000000600052604160045260246000fd5b6000601f19601f8301169050919050565b612e3d81612bf8565b8114612e4857600080fd5b50565b612e5481612c0a565b8114612e5f57600080fd5b50565b612e6b81612c16565b8114612e7657600080fd5b50565b612e8281612c62565b8114612e8d57600080fd5b50565b612e9981612c6c565b8114612ea457600080fd5b5056fea264697066735822122067ae9e8d818f45ecd15b2d9aaf603c65abefacd2a4c61bd4599fcf94f624fafd64736f6c63430008000033",
  "immutableReferences": {},
  "source": "pragma solidity 0.8.0;\n\nimport \"../node_modules/@openzeppelin/contracts/token/ERC721/ERC721.sol\";\nimport \"../node_modules/@openzeppelin/contracts/access/Ownable.sol\";\n\ncontract NftMmorpg is ERC721, Ownable {\n    struct Character {\n        string name;\n        uint8 damage;\n        uint8 magic;\n    }\n\n    mapping(uint256 => Character) private _characters;\n    uint256 nextId = 0;\n\n    constructor(string memory name, string memory symbol)\n        ERC721(name, symbol)\n    {}\n\n    function mint(\n        string memory name,\n        uint8 dmg,\n        uint8 magic\n    ) public {\n        _safeMint(msg.sender, nextId);\n        _characters[nextId] = Character(name, dmg, magic);\n        nextId++;\n    }\n\n    function getCurrentId() public view returns (uint256) {\n        return nextId;\n    }\n\n    function getCharacter(uint256 id) public view returns (Character memory) {\n        return _characters[id];\n    }\n}\n",
  "sourcePath": "/Users/lzoli/SwDev/Dapp/defi-mmorpg/contracts/NftMmorpg.sol",
  "compiler": {
    "name": "solc",
    "version": "0.8.0+commit.c7dfd78e.Emscripten.clang"
  },
  "schemaVersion": "3.4.1",
  "updatedAt": "2021-07-25T14:27:26.966Z",
  "networkType": "ethereum",
  "devdoc": {
    "kind": "dev",
    "methods": {
      "approve(address,uint256)": {
        "details": "See {IERC721-approve}."
      },
      "balanceOf(address)": {
        "details": "See {IERC721-balanceOf}."
      },
      "getApproved(uint256)": {
        "details": "See {IERC721-getApproved}."
      },
      "isApprovedForAll(address,address)": {
        "details": "See {IERC721-isApprovedForAll}."
      },
      "name()": {
        "details": "See {IERC721Metadata-name}."
      },
      "owner()": {
        "details": "Returns the address of the current owner."
      },
      "ownerOf(uint256)": {
        "details": "See {IERC721-ownerOf}."
      },
      "renounceOwnership()": {
        "details": "Leaves the contract without owner. It will not be possible to call `onlyOwner` functions anymore. Can only be called by the current owner. NOTE: Renouncing ownership will leave the contract without an owner, thereby removing any functionality that is only available to the owner."
      },
      "safeTransferFrom(address,address,uint256)": {
        "details": "See {IERC721-safeTransferFrom}."
      },
      "safeTransferFrom(address,address,uint256,bytes)": {
        "details": "See {IERC721-safeTransferFrom}."
      },
      "setApprovalForAll(address,bool)": {
        "details": "See {IERC721-setApprovalForAll}."
      },
      "supportsInterface(bytes4)": {
        "details": "See {IERC165-supportsInterface}."
      },
      "symbol()": {
        "details": "See {IERC721Metadata-symbol}."
      },
      "tokenURI(uint256)": {
        "details": "See {IERC721Metadata-tokenURI}."
      },
      "transferFrom(address,address,uint256)": {
        "details": "See {IERC721-transferFrom}."
      },
      "transferOwnership(address)": {
        "details": "Transfers ownership of the contract to a new account (`newOwner`). Can only be called by the current owner."
      }
    },
    "version": 1
  },
  "userdoc": {
    "kind": "user",
    "methods": {},
    "version": 1
  }
}